:020000040800F2
:10000000008000201D1D0008D11A0008D91A000820
:10001000E11A0008E91A0008F11A000800000000BF
:10002000000000000000000000000000F91A0008B5
:10003000071B000800000000151B0008231B000818
:100040006D1D00086D1D00086D1D00086D1D000868
:100050006D1D00086D1D00086D1D00086D1D000858
:100060006D1D00086D1D00086D1D00086D1D000848
:100070006D1D00086D1D00086D1D00086D1D000838
:100080006D1D0008000000006D1D00086D1D0008BA
:100090006D1D00086D1D00086D1D00086D1D000818
:1000A0006D1D00086D1D00086D1D00086D1D000808
:1000B000311B0008451B00086D1D0008591B000876
:1000C0006D1D00086D1D00086D1D00086D1D0008E8
:1000D0006D1D00086D1D00086D1D00086D1D0008D8
:1000E0006D1D00086D1D00086D1D00086D1D0008C8
:1000F0006D1D00086D1D00086D1D0008000000004A
:10010000000000006D1D0008000000006D1D0008CB
:100110006D1D0008000000006D1D00086D1D000829
:100120006D1D00086D1D00086D1D00086D1D000887
:100130006D1D000800000000000000006D1D00089B
:100140006D1D00086D1D000800000000000000008B
:10015000000000000000000000000000000000009F
:100160000000000000000000000000006D1D0008FD
:100170006D1D0008000000000000000000000000ED
:10018000000000006D1D00080000000000000000DD
:10019000000000000000000000000000000000005F
:1001A00000000000000000006D1D00086D1D00082B
:1001B0006D1D00086D1D00086D1D00080000000089
:1001C000000000006D1D000800000000000000009D
:0801D0006D1D00086D1D000803
:1001E00010B5054C237833B9044B13B10448AFF371
:1001F00000800123237010BDD40100200000000006
:100200007481000808B5034B1BB103490348AFF3E1
:10021000008008BD00000000D801002074810008A3
:1002200001F0FF01102A2BDB10F0070F08D010F8A7
:10023000013B013A8B422DD010F0070F42B3F6D1AB
:10024000F0B441EA012141EA014122F007047FF0C4
:1002500000070023F0E80256083C85EA010586EA1B
:10026000010685FA47F5A3FA87F586FA47F6A5FA57
:1002700087F68EB9EED1F0BC01F0FF0102F0070263
:1002800032B110F8013B013A83EA010313B1F8D10E
:100290000020704701387047002D06BF35460338EF
:1002A000073815F0010F07D1013015F4807F02BF28
:1002B000013015F4C03F0130F0BC0138704700BF79
:1002C000034613F8012B002AFBD1181A0138704796
:1002D00081F0004102E000BF83F0004330B54FEAF7
:1002E00041044FEA430594EA050F08BF90EA020F64
:1002F0001FBF54EA000C55EA020C7FEA645C7FEAF7
:10030000655C00F0E2804FEA5454D4EB5555B8BF19
:100310006D420CDD2C4480EA020281EA030382EA8A
:10032000000083EA010180EA020281EA0303362D1C
:1003300088BF30BD11F0004F4FEA01314FF4801CEF
:100340004CEA113102D0404261EB410113F0004F01
:100350004FEA03334CEA133302D0524263EB4303B8
:1003600094EA050F00F0A780A4F10104D5F1200E56
:100370000DDB02FA0EFC22FA05F2801841F10001B1
:1003800003FA0EF2801843FA05F359410EE0A5F185
:1003900020050EF1200E012A03FA0EFC28BF4CF0B6
:1003A000020C43FA05F3C01851EBE37101F000456C
:1003B00007D54FF0000EDCF1000C7EEB00006EEB79
:1003C0000101B1F5801F1BD3B1F5001F0CD3490803
:1003D0005FEA30004FEA3C0C04F101044FEA44525A
:1003E00012F5800F80F09A80BCF1004F08BF5FEAE1
:1003F000500C50F1000041EB045141EA050130BDC1
:100400005FEA4C0C404141EB0101013C28BFB1F5D2
:10041000801FE9D291F0000F04BF01460020B1FA1D
:1004200081F308BF2033A3F10B03B3F120020CDAF0
:100430000C3208DD02F1140CC2F10C0201FA0CF0CE
:1004400021FA02F10CE002F11402D8BFC2F1200C33
:1004500001FA02F120FA0CFCDCBF41EA0C019040E9
:10046000E41AA2BF01EB0451294330BD6FEA040432
:100470001F3C1CDA0C340EDC04F11404C4F120021D
:1004800020FA04F001FA02F340EA030021FA04F32F
:1004900045EA030130BDC4F10C04C4F1200220FA86
:1004A00002F001FA04F340EA0300294630BD21FAC4
:1004B00004F0294630BD94F0000F83F4801306BF8A
:1004C00081F480110134013D4EE77FEA645C18BF7E
:1004D0007FEA655C29D094EA050F08BF90EA020F15
:1004E00005D054EA000C04BF1946104630BD91EA0D
:1004F000030F1EBF0021002030BD5FEA545C05D110
:100500004000494128BF41F0004130BD14F580044E
:100510003CBF01F5801130BD01F0004545F0FE41C2
:1005200041F470014FF0000030BD7FEA645C1ABFF7
:10053000194610467FEA655C1CBF0B46024650EA2E
:10054000013406BF52EA033591EA030F41F400215A
:1005500030BD00BF90F0000F04BF0021704730B5E0
:100560004FF4806404F132044FF000054FF00001B5
:1005700050E700BF90F0000F04BF0021704730B576
:100580004FF4806404F1320410F0004548BF40424B
:100590004FF000013EE700BF42004FEAE2014FEAA0
:1005A00031014FEA02701FBF12F07F4393F07F4F7B
:1005B00081F06051704732F07F4208BF704793F07E
:1005C0007F4F04BF41F40021704730B54FF4607491
:1005D00001F0004521F000411CE700BF50EA010294
:1005E00008BF704730B54FF000050AE050EA01023D
:1005F00008BF704730B511F0004502D5404261EBAD
:1006000041014FF4806404F132045FEA915C3FF4ED
:10061000D8AE4FF003025FEADC0C18BF03325FEA8A
:10062000DC0C18BF033202EBDC02C2F1200300FA3B
:1006300003FC20FA02F001FA03FE40EA0E0021FA60
:1006400002F11444BDE600BF70B54FF0FF0C4CF44E
:10065000E06C1CEA11541DBF1CEA135594EA0C0F00
:1006600095EA0C0F00F0DEF82C4481EA030621EA3B
:100670004C5123EA4C5350EA013518BF52EA033576
:1006800041F4801143F4801338D0A0FB02CE4FF028
:100690000005E1FB02E506F00042E0FB03E54FF058
:1006A0000006E1FB03569CF0000F18BF4EF0010E50
:1006B000A4F1FF04B6F5007F64F5407404D25FEA4C
:1006C0004E0E6D4146EB060642EAC62141EA5551FF
:1006D0004FEAC52040EA5E504FEACE2EB4F1FD0C41
:1006E00088BFBCF5E06F1ED8BEF1004F08BF5FEABF
:1006F000500E50F1000041EB045170BD06F0004671
:1007000046EA010140EA020081EA0301B4EB5C041D
:10071000C2BFD4EB0C0541EA045170BD41F4801115
:100720004FF0000E013C00F3AB8014F1360FDEBF3A
:10073000002001F0004170BDC4F10004203C35DA16
:100740000C341BDC04F11404C4F1200500FA05F399
:1007500020FA04F001FA05F240EA020001F000423A
:1007600021F0004110EBD37021FA04F642EB0601B0
:100770005EEA430E08BF20EAD37070BDC4F10C04DA
:10078000C4F1200500FA04F320FA05F001FA04F29E
:1007900040EA020001F0004110EBD37041F100018A
:1007A0005EEA430E08BF20EAD37070BDC4F1200595
:1007B00000FA05F24EEA020E20FA04F301FA05F2FD
:1007C00043EA020321FA04F001F0004121FA04F2A5
:1007D00020EA020000EBD3705EEA430E08BF20EA75
:1007E000D37070BD94F0000F0FD101F000464000AF
:1007F00041EB010111F4801F08BF013CF7D041EA31
:10080000060195F0000F18BF704703F00046520034
:1008100043EB030313F4801F08BF013DF7D043EA05
:100820000603704794EA0C0F0CEA135518BF95EABB
:100830000C0F0CD050EA410618BF52EA4306D1D142
:1008400081EA030101F000414FF0000070BD50EA61
:10085000410606BF1046194652EA430619D094EAEB
:100860000C0F02D150EA013613D195EA0C0F05D1D5
:1008700052EA03361CBF104619460AD181EA030129
:1008800001F0004141F0FE4141F470014FF00000E1
:1008900070BD41F0FE4141F4780170BD70B54FF07C
:1008A000FF0C4CF4E06C1CEA11541DBF1CEA1355FC
:1008B00094EA0C0F95EA0C0F00F0A7F8A4EB0504DE
:1008C00081EA030E52EA03354FEA013100F08880D5
:1008D0004FEA03334FF0805545EA131343EA12639E
:1008E0004FEA022245EA111545EA10654FEA002653
:1008F0000EF000419D4208BF964244F1FD0404F50C
:10090000407402D25B084FEA3202B61A65EB030567
:100910005B084FEA32024FF480104FF4002CB6EB24
:10092000020E75EB030E22BFB61A754640EA0C00A4
:100930005B084FEA3202B6EB020E75EB030E22BFE4
:10094000B61A754640EA5C005B084FEA3202B6EB25
:10095000020E75EB030E22BFB61A754640EA9C00E4
:100960005B084FEA3202B6EB020E75EB030E22BFB4
:10097000B61A754640EADC0055EA060E18D04FEA72
:10098000051545EA16754FEA06164FEAC30343EA12
:1009900052734FEAC2025FEA1C1CC0D111F4801FDF
:1009A0000BD141EA00014FF000004FF0004CB6E7D8
:1009B00011F4801F04BF01430020B4F1FD0C88BF77
:1009C000BCF5E06F3FF6AFAEB5EB030C04BFB6EB82
:1009D000020C5FEA500C50F1000041EB045170BD75
:1009E0000EF0004E4EEA113114EB5C04C2BFD4EBA2
:1009F0000C0541EA045170BD41F480114FF0000E26
:100A0000013C90E645EA060E8DE60CEA135594EAA1
:100A10000C0F08BF95EA0C0F3FF43BAF94EA0C0FA4
:100A20000AD150EA01347FF434AF95EA0C0F7FF419
:100A300025AF104619462CE795EA0C0F06D152EA6D
:100A400003353FF4FDAE1046194622E750EA410651
:100A500018BF52EA43067FF4C5AE50EA41047FF462
:100A60000DAF52EA43057FF4EBAE12E74FF0FF3CC7
:100A700006E000BF4FF0010C02E000BF4FF0010C98
:100A80004DF804CD4FEA410C7FEA6C5C4FEA430C11
:100A900018BF7FEA6C5C1BD001B050EA410C0CBF60
:100AA00052EA430C91EA030F02BF90EA020F0020C2
:100AB000704710F1000F91EA030F58BF994208BF29
:100AC00090422CBFD8176FEAE37040F001007047E6
:100AD0004FEA410C7FEA6C5C02D150EA013C07D13D
:100AE0004FEA430C7FEA6C5CD6D152EA033CD3D088
:100AF0005DF8040B704700BF8446104662468C4682
:100B00001946634600E000BF01B5FFF7B7FF0028B4
:100B100048BF10F1000F01BD4DF808EDFFF7F4FFDD
:100B20000CBF012000205DF808FB00BF4DF808ED68
:100B3000FFF7EAFF34BF012000205DF808FB00BF8B
:100B40004DF808EDFFF7E0FF94BF012000205DF8AD
:100B500008FB00BF4DF808EDFFF7CEFF94BF012062
:100B600000205DF808FB00BF4DF808EDFFF7C4FF5B
:100B700034BF012000205DF808FB00BF4FEA410CA4
:100B80007FEA6C5C02D150EA013C0AD14FEA430C87
:100B90007FEA6C5C02D152EA033C02D14FF00000C4
:100BA00070474FF0010070474FEA410212F5001202
:100BB00015D211D56FF47873B3EB625212D94FEAA4
:100BC000C12343F0004343EA505311F0004F23FA8E
:100BD00002F018BF404270474FF00000704750EAE3
:100BE000013005D111F0004008BF6FF000407047A0
:100BF0004FF00000704700BF4FEA4102B2F1E043FE
:100C000024BFB3F5001CDCF1FE5C0DD901F0004CF3
:100C10004FEAC0024CEA5070B2F1004F40EB830043
:100C200008BF20F00100704711F0804F21D113F16F
:100C30003872BCBF01F00040704741F480114FEAA8
:100C40005252C2F11802C2F1200C10FA0CF320FA31
:100C500002F018BF40F001004FEAC1234FEAD3234E
:100C600003FA0CFC40EA0C0023FA02F34FEA4303B8
:100C7000CCE77FEA625307D150EA01331EBF4FF041
:100C8000FE4040F44000704701F0004040F0FE405C
:100C900040F40000704700BF53B94AB9002908BFAB
:100CA00000281CBF4FF0FF314FF0FF3000F088B933
:100CB000ADF1080C6DE904CE00F006F8DDF804E0B3
:100CC000DDE9022304B070472DE9F047089D8E4608
:100CD00004468846002B4AD18A42174662D9B2FAA6
:100CE00082F64EB1C6F1200301FA06F820FA03F3AA
:100CF000B74043EA0808B4404FEA174E1FFA87FC92
:100D0000B8FBFEF1230C0EFB118843EA084301FBFC
:100D10000CF29A4209D9FB1801F1FF3080F0EA8009
:100D20009A4240F2E78002393B449A1AA3B2B2FBDE
:100D3000FEF00EFB102243EA024300FB0CFC9C4534
:100D400009D9FB1800F1FF3280F0D6809C4540F2B3
:100D5000D3803B44023840EA0140A3EB0C0300215E
:100D60001DB1F3400022C5E90032BDE8F0878B4297
:100D700005D90DB1C5E9000100210846F5E7B3FA30
:100D800083F1002946D1734502D3824200F20581E6
:100D9000841A6EEB030201209046002DE5D0C5E9D0
:100DA0000048E2E7002A00F09080B2FA82F6002EB6
:100DB00040F0A4808A1A030C4FEA174E80B2BCB2EE
:100DC0000121B2FBFEFC0EFB1C2243EA024304FBA2
:100DD0000CF29A4207D9FB180CF1FF3802D29A4262
:100DE00000F2E080C4469B1AB3FBFEF20EFB123306
:100DF00040EA034302FB04F49C4207D9FB1802F1CA
:100E0000FF3002D29C4200F2CA8002461B1B42EA1B
:100E10000C40A5E7C1F120068B4022FA06F71F43DC
:100E20000EFA01F420FA06F32EFA06FE4FEA1749ED
:100E3000234300FA01F81FFA87FCBEFBF9F01C0CF3
:100E400009FB10EE44EA0E4400FB0CFEA64502FA34
:100E500001F209D93C1900F1FF3A80F09C80A645C7
:100E600040F2998002383C44A4EB0E041FFA83FE42
:100E7000B4FBF9F309FB13444EEA044403FB0CFCF6
:100E8000A44508D93C1903F1FF3E80F08280A445B7
:100E90007FD9023B3C4443EA0040A4EB0C04A0FB96
:100EA00002EC64457346E14662D35FD05DB1B8EBB6
:100EB000030264EB090404FA06F622FA01F31E4366
:100EC000CC40C5E9006400214FE7B1FBF2FC010C06
:100ED00041EA0E4180B240EA01423B4638463C4678
:100EE000B846BE462026B1FBF7F1A2EB080241EA64
:100EF0000C4166E7014618E710462CE7C6F12002D0
:100F00002EFA02F3B740B14020FA02F24FEA174E30
:100F10000A43B3FBFEF8BCB20EFB1833110C41EAD6
:100F2000034108FB04F9B04089454FEA104380B201
:100F30003ED9791808F1FF3C01D289451FD8A1EBB1
:100F40000901B1FBFEF909FB04F80EFB191192B27D
:100F500042EA0142424529D2BA1809F1FF31C4D20E
:100F60004245C2D2A9F102013A44BEE7F0459DD202
:100F7000BEEB02036CEB070C0138E14696E7A7EBEA
:100F800009094944A8F1020CB1FBFEF909FB04F878
:100F9000DBE773467FE7504666E70846FDE63B44DD
:100FA000023A33E7ACF1020C3B441CE749469CE7AC
:100FB000A1EB0901C446B1FBFEF909FB04F8C4E743
:100FC000704700BF80B500AF3C21084802F032FDF9
:100FD0003C21074802F02EFD044B1B6800225A6298
:100FE000034B1B6800225A6200BF80BD9C02002098
:100FF000E80200200000000080B500AF184B1B681D
:101000001846FFF7B7FA12A3D3E90023FFF71CFB3A
:1010100002460B46104619460FA3D3E90023FFF7FB
:1010200013FB02460B46104619464FF000020D4BCB
:10103000FFF734FC02460B4610461946FFF7DCFD6D
:10104000034607EE903AB0EE670A80BDAFF300802A
:101050004AD8124DFB210940BA490C022B87A63F02
:10106000F00100200000084080B500AF184B1B685D
:101070001846FFF77FFA12A3D3E90023FFF7E4FA3B
:1010800002460B46104619460FA3D3E90023FFF78B
:10109000DBFA02460B46104619464FF000020D4B94
:1010A000FFF7FCFB02460B4610461946FFF7A4FD6E
:1010B000034607EE903AB0EE670A80BDAFF30080BA
:1010C0004AD8124DFB210940BA490C022B87A63F92
:1010D000F40100200000084080B483B000AF174B3B
:1010E0001B685B6AFB80164B1B685B6ABB80154BF9
:1010F0001B88FA88D31A9BB27B80134B1B88BA8853
:10110000D31A9BB23B80B7F90220104B1B681344E3
:101110000E4A1360B7F900200D4B1B6813440C4AAC
:101120001360084AFB881380074ABB88138000BFFE
:101130000C37BD465DF8047B704700BF9C02002061
:10114000E8020020F8010020FA010020F001002050
:10115000F401002080B582B000AF7860391D4FF0F7
:10116000FF330122034803F0E7FC7B681846083789
:10117000BD4680BD34030020B0B582B002AF00F0A0
:10118000F6FD00F033F800F051FA00F079F800F0C5
:10119000B7F800F055F900F0A7F900F0FBF900F0FE
:1011A000ADFAFFF70FFFFFF797FFFFF725FF10EEF0
:1011B000103A1846FFF7F0F904460D46FFF754FFC2
:1011C00010EE103A1846FFF7E7F902460B46CDE954
:1011D000002322462B46044805F04EF8322000F04A
:1011E00037FE00BFDFE700BF9081000880B594B0F4
:1011F00000AF07F1180338220021184605F091F8D6
:101200003B1D00221A605A609A60DA601A61002061
:1012100001F040FA0123BB614FF48033FB610223EC
:101220007B630323BB630223FB6355233B640223DD
:101230007B640223BB640223FB6407F11803184696
:1012400001F0DCFA0346002B01D000F051FA0F2325
:101250007B600323BB600023FB6000233B61002312
:101260007B613B1D0421184601F0DAFD0346002B8B
:1012700001D000F03DFA00BF5037BD4680BD0000F0
:1012800080B500AF1B4B1C4A1A601A4B1B4A5A60B0
:10129000184B00229A60174B0122DA60154B00228E
:1012A0001A61144B00225A61124B00229A61114BB1
:1012B0000022DA610F4B00221A620E4801F09EF8FC
:1012C0000346002B01D000F013FA0021094801F079
:1012D0004AF90346002B01D000F00AFA0021054824
:1012E00001F08CF90346002B01D000F001FA00BF99
:1012F00080BD00BFFC010020005400403612624057
:1013000080B598B000AF07F1540300221A605A600C
:101310009A6007F1380300221A605A609A60DA6016
:101320001A615A619A613B1D34220021184604F06B
:10133000F8FF414B414A1A603F4BA9225A603E4B8D
:1013400000229A603C4B4FF47A72DA603A4B0022EA
:101350001A61394B00225A61374B00229A61364894
:1013600002F06AF90346002B01D000F0C1F9002316
:101370007B650023BB650023FB6507F15403194619
:101380002D4803F035FA0346002B01D000F0B0F9E8
:101390006023BB630023FB6300233B6400237B6467
:1013A0000023BB640023FB6400233B6507F1380383
:1013B00000221946204802F01BFD0346002B01D0F5
:1013C00000F096F907F13803042219461A4802F092
:1013D0000FFD0346002B01D000F08AF900237B604B
:1013E0000023BB600023FB6000233B6100237B6183
:1013F0004FF40053BB610023FB6100233B620023D9
:101400007B624FF00073BB620023FB6200233B63EF
:1014100000237B633B1D1946074803F06BFA034624
:10142000002B01D000F064F9034800F0C1FA00BFBE
:101430006037BD4680BD00BF50020020002C014037
:1014400080B58CB000AF07F10C03242200211846B0
:1014500004F067FF3B4600221A605A609A60214BF5
:101460004FF080421A601F4B00225A601D4B002231
:101470009A601C4B4FF6FF72DA601A4B00221A6119
:10148000184B00229A610123FB6000233B6101237A
:101490007B610023BB610023FB6100233B620123CE
:1014A0007B620023BB620023FB6207F10C03194639
:1014B0000C4802F019FA0346002B01D000F018F98D
:1014C00000233B600023BB603B461946054803F000
:1014D0008FF90346002B01D000F00AF900BF303726
:1014E000BD4680BD9C02002080B58CB000AF07F1E6
:1014F0000C0324220021184604F013FF3B4600226F
:101500001A605A609A60214B214A1A601F4B0022D0
:101510005A601E4B00229A601C4B4FF6FF72DA6035
:101520001A4B00221A61194B00229A610123FB60B9
:1015300000233B6101237B610023BB610023FB612E
:1015400000233B6201237B620023BB620023FB621A
:1015500007F10C0319460D4802F0C6F90346002BAB
:1015600001D000F0C5F800233B600023BB603B4680
:101570001946064803F03CF90346002B01D000F061
:10158000B7F800BF3037BD4680BD00BFE80200207D
:101590000004004080B500AF224B234A1A60214B63
:1015A0004FF4E1325A601F4B00229A601D4B00221B
:1015B000DA601C4B00221A611A4B0C225A61194B3B
:1015C00000229A61174B0022DA61164B00221A6240
:1015D000144B00225A62134B00229A62114803F006
:1015E0005BFA0346002B01D000F082F800210D4881
:1015F00004F060F80346002B01D000F079F80021D8
:10160000084804F095F80346002B01D000F070F86C
:10161000044804F016F80346002B01D000F068F8E7
:1016200000BF80BD340300200044004080B588B076
:1016300000AF07F10C0300221A605A609A60DA606A
:101640001A61294BDB6C284A43F02003D364264BF4
:10165000DB6C03F02003BB60BB68234BDB6C224ACE
:1016600043F00103D364204BDB6C03F001037B6088
:101670007B681D4BDB6C1C4A43F00203D3641A4B9E
:10168000DB6C03F002033B603B6800224FF4E05147
:101690004FF0904000F09AFE00221821134800F00D
:1016A00095FE4FF4E053FB6001233B6100237B6117
:1016B0000023BB6107F10C0319464FF0904000F086
:1016C000F9FC1823FB6001233B6100237B610023AD
:1016D000BB6107F10C031946044800F0EBFC00BFA6
:1016E0002037BD4680BD00BF001002400004004806
:1016F00080B400AF72B600BF00BFFDE780B500AF99
:101700000021074801F0F0FF0421054801F0ECFF3B
:1017100001221021034800F059FE00BF80BD00BF28
:10172000500200200004004880B582B000AF0F4B8B
:101730001B6E0E4A43F0010313660C4B1B6E03F045
:1017400001037B607B68094B9B6D084A43F0805323
:101750009365064B9B6D03F080533B603B6801F043
:101760003DF800BF0837BD4680BD00BF00100240F5
:1017700080B59CB000AF786007F15C0300221A606E
:101780005A609A60DA601A6107F118034422002156
:10179000184604F0C6FD7B681B68314A93425BD152
:1017A0004023BB6100233B6307F11803184601F097
:1017B00053FD0346002B01D0FFF79AFF294BDB6C4A
:1017C000284A43F00103D364264BDB6C03F001038A
:1017D0007B617B69234BDB6C224A43F00203D364B9
:1017E000204BDB6C03F002033B613B694FF4004389
:1017F000FB6512233B6600237B660023BB66042344
:10180000FB6607F15C0319464FF0904000F052FC74
:101810008023FB6512233B6600237B660023BB66A7
:101820000423FB6607F15C0319460F4800F042FCF5
:101830000C4B9B6D0B4A43F400139365094B9B6D56
:1018400003F40013FB60FB68002200211F2000F05E
:10185000FCFB1F2000F013FC00BF7037BD4680BDAD
:1018600000540040001002400004004880B485B0DD
:1018700000AF78607B681B680A4A93420BD10A4B21
:101880001B6E094A43F400631366074B1B6E03F497
:101890000063FB60FB6800BF1437BD465DF8047B46
:1018A000704700BF002C01400010024080B58CB092
:1018B00000AF786007F11C0300221A605A609A603A
:1018C000DA601A617B681B68B3F1804F31D1364B07
:1018D0009B6D354A43F001039365334B9B6D03F0D9
:1018E0000103BB61BB69304BDB6C2F4A43F0010342
:1018F000D3642D4BDB6C03F001037B617B69032315
:10190000FB6102233B6202237B620023BB62012353
:10191000FB6207F11C0319464FF0904000F0CAFB30
:10192000002200211C2000F090FB1C2000F0A7FBEF
:1019300035E07B681B681D4A934230D11A4B9B6D82
:10194000194A43F002039365174B9B6D03F00203A2
:101950003B613B69144BDB6C134A43F00103D364D6
:10196000114BDB6C03F00103FB60FB68C023FB61E0
:1019700002233B6202237B620023BB620223FB62E1
:1019800007F11C0319464FF0904000F093FB002232
:1019900000211D2000F059FB1D2000F070FB00BF4E
:1019A0003037BD4680BD00BF00100240000400403B
:1019B00080B588B000AF786007F10C0300221A6090
:1019C0005A609A60DA601A617B681B68124A934217
:1019D0001DD1124BDB6C114A43F00103D3640F4B52
:1019E000DB6C03F00103BB60BB684FF44073FB602A
:1019F00002233B6100237B610023BB610623FB6163
:101A000007F10C0319464FF0904000F053FB00BF64
:101A10002037BD4680BD00BF002C014000100240B1
:101A200080B59AB000AF786007F1540300221A60C5
:101A30005A609A60DA601A6107F1100344220021AB
:101A4000184604F06EFC7B681B681F4A934236D12F
:101A500002233B610023BB6107F11003184601F02C
:101A6000FBFB0346002B01D0FFF742FE174B9B6D9B
:101A7000164A43F400339365144B9B6D03F4003313
:101A8000FB60FB68114BDB6C104A43F00103D3642D
:101A90000E4BDB6C03F00103BB60BB680C237B6562
:101AA0000223BB650023FB6500233B6607237B669F
:101AB00007F1540319464FF0904000F0FBFA00BFC5
:101AC0006837BD4680BD00BF0044004000100240A2
:101AD00080B400AF00BFFDE780B400AF00BFFDE7FA
:101AE00080B400AF00BFFDE780B400AF00BFFDE7EA
:101AF00080B400AF00BFFDE780B400AF00BFBD46BB
:101B00005DF8047B704780B400AF00BFBD465DF850
:101B1000047B704780B400AF00BFBD465DF8047B16
:101B2000704780B500AF00F075F900BF80BD0000C0
:101B300080B500AF024802F00BF800BF80BD00BFC7
:101B40009C02002080B500AF024802F001F800BFFF
:101B500080BD00BFE802002080B500AF024800F061
:101B6000E8FC00BF80BD00BFFC01002080B400AFD6
:101B700001231846BD465DF8047B704780B582B0EE
:101B800000AF7860396004F01FFC034616221A602B
:101B90004FF0FF3318460837BD4680BD80B582B090
:101BA00000AF78604FF0FF317868FFF7E7FF00BFC4
:101BB000FDE780B586B000AFF860B9607A600023B9
:101BC0007B610AE0AFF300800146BB685A1CBA6033
:101BD000CAB21A707B6901337B617A697B689A4269
:101BE000F0DB7B6818461837BD4680BD80B586B0EF
:101BF00000AFF860B9607A6000237B6109E0BB68E0
:101C00005A1CBA601B781846FFF7A4FA7B690133A7
:101C10007B617A697B689A42F1DB7B6818461837EA
:101C2000BD4680BD80B483B000AF78604FF0FF3315
:101C300018460C37BD465DF8047B704780B483B00E
:101C400000AF786039603B684FF400525A6000235F
:101C500018460C37BD465DF8047B704780B483B0EE
:101C600000AF7860012318460C37BD465DF8047B51
:101C7000704780B485B000AFF860B9607A60002327
:101C800018461437BD465DF8047B704780B586B0B2
:101C900000AF7860144A154BD31A7B617B693B61B6
:101CA000134B1B68002B02D1114B124A1A60104BC8
:101CB0001A687B6813443A699A4207D204F084FB9D
:101CC00003460C221A604FF0FF3309E0084B1B68F3
:101CD000FB60074B1A687B681344054A1360FB6876
:101CE00018461837BD4680BD008000200004000063
:101CF000C80300202005002080B400AF064BD3F8B5
:101D00008830054A43F47003C2F8883000BFBD46EE
:101D10005DF8047B704700BF00ED00E00D4885468C
:101D2000FFF7EAFF0C480D490D4A002302E0D458A2
:101D3000C4500433C4188C42F9D30A4A0A4C002315
:101D400001E013600432A242FBD304F043FBFFF72F
:101D500013FAFEE70080002000000020D4010020DC
:101D600064850008D40100201C050020FEE780B532
:101D700082B000AF0023FB71032000F05BF90F205D
:101D800000F00EF80346002B02D00123FB7101E0A6
:101D9000FFF7CAFCFB7918460837BD4680BD000036
:101DA00080B584B000AF78600023FB73164B1B68CE
:101DB000002B22D0154B1A68134B1B684FF47A7115
:101DC000B1FBF3F3B2FBF3F3184600F066F90346F8
:101DD000002B0FD17B680F2B09D8002279684FF0B8
:101DE000FF3000F032F90A4A7B68136007E00123F4
:101DF000FB7304E00123FB7301E00123FB73FB7B16
:101E000018461037BD4680BD0800002000000020A5
:101E10000400002080B400AF054B1A68054B1B6816
:101E20001344034A136000BFBD465DF8047B70474E
:101E3000CC0300200800002080B400AF034B1B68D7
:101E40001846BD465DF8047B704700BFCC030020F8
:101E500080B584B000AF7860FFF7EEFFB8607B68B4
:101E6000FB60FB68B3F1FF3F04D0094B1B68FA68C5
:101E70001344FB6000BFFFF7DFFF0246BB68D31AC5
:101E8000FA689A42F7D800BF00BF1037BD4680BD40
:101E90000800002080B485B000AF78607B6803F054
:101EA0000703FB600C4BDB68BB60BA684FF6FF03AF
:101EB0001340BB60FB681A02BB68134343F0BF6367
:101EC00043F40033BB60044ABB68D36000BF1437DF
:101ED000BD465DF8047B704700ED00E080B400AFC4
:101EE000044BDB681B0A03F007031846BD465DF888
:101EF000047B704700ED00E080B483B000AF034680
:101F0000FB7197F90730002B0BDBFB7903F01F0205
:101F1000074997F907305B09012000FA02F241F8FE
:101F2000232000BF0C37BD465DF8047B704700BF1F
:101F300000E100E080B483B000AF03463960FB717C
:101F400097F90730002B0ADB3B68DAB20C4997F9A6
:101F500007301201D2B20B4483F800230AE03B6839
:101F6000DAB20849FB7903F00F03043B1201D2B245
:101F70000B441A7600BF0C37BD465DF8047B7047F2
:101F800000E100E000ED00E080B489B000AFF8604F
:101F9000B9607A60FB6803F00703FB61FB69C3F17A
:101FA0000703042B28BF0423BB61FB690433062B02
:101FB00002D9FB69033B00E000237B614FF0FF3255
:101FC000BB6902FA03F3DA43BB681A407B699A40A3
:101FD0004FF0FF317B6901FA03F3D9437B680B4073
:101FE000134318462437BD465DF8047B7047000054
:101FF00080B582B000AF78607B68013BB3F1807F31
:1020000001D301230FE00A4A7B68013B53600F2193
:102010004FF0FF30FFF78EFF054B00229A60044B14
:1020200007221A60002318460837BD4680BD00BF4E
:1020300010E000E080B582B000AF78607868FFF70C
:1020400029FF00BF0837BD4680BD80B586B000AF10
:102050000346B9607A60FB73FFF740FF78617A68E6
:10206000B9687869FFF790FF024697F90F3011467B
:102070001846FFF75FFF00BF1837BD4680BD80B52B
:1020800082B000AF0346FB7197F907301846FFF79F
:1020900033FF00BF0837BD4680BD80B582B000AFBA
:1020A00078607868FFF7A4FF034618460837BD46F6
:1020B00080BD000080B487B000AF78603960002335
:1020C0007B6164E13B681A6801217B6901FA03F3D3
:1020D0001340FB60FB68002B00F056813B685B6897
:1020E00003F00303012B05D03B685B6803F0030397
:1020F000022B30D17B689B683B617B695B000322CC
:1021000002FA03F3DB433A6913403B613B68DA6848
:102110007B695B0002FA03F33A6913433B617B6816
:102120003A699A607B685B683B6101227B6902FACD
:1021300003F3DB433A6913403B613B685B681B096F
:1021400003F001027B6902FA03F33A6913433B612E
:102150007B683A695A603B685B6803F00303032BB2
:1021600009D13B685B6803F00303032B1BD13B6879
:102170009B68012B17D07B68DB683B617B695B0048
:10218000032202FA03F3DB433A6913403B613B68E5
:102190009A687B695B0002FA03F33A6913433B6177
:1021A0007B683A69DA603B685B6803F00303022BE3
:1021B00023D17B69DA087B68083253F822303B610F
:1021C0007B6903F007039B000F2202FA03F3DB4352
:1021D0003A6913403B613B681A697B6903F0070366
:1021E0009B0002FA03F33A6913433B617B69DA0807
:1021F0007B680832396943F822107B681B683B61B1
:102200007B695B00032202FA03F3DB433A69134064
:102210003B613B685B6803F003027B695B0002FA89
:1022200003F33A6913433B617B683A691A603B6880
:102230005B6803F44033002B00F0A6805B4B1B6E01
:102240005A4A43F001031366584B1B6E03F0010317
:10225000BB60BB68564A7B699B08023352F8233047
:102260003B617B6903F003039B000F2202FA03F337
:10227000DB433A6913403B617B68B3F1904F1FD059
:102280007B684C4A934219D07B684B4A934213D0E7
:102290007B684A4A93420DD07B68494A934207D0F3
:1022A0007B68484A934201D105230AE0062308E0EF
:1022B000042306E0032304E0022302E0012300E0FC
:1022C00000237A6902F00302920093403A691343B3
:1022D0003B6137497B699B0802333A6941F8232007
:1022E000394B9B683B61FB68DB433A6913403B61B8
:1022F0003B685B6803F48013002B03D03A69FB68EA
:1023000013433B61304A3B6993602F4BDB683B6171
:10231000FB68DB433A6913403B613B685B6803F44D
:102320000013002B03D03A69FB6813433B61264A34
:102330003B69D360244B5B683B61FB68DB433A69D4
:1023400013403B613B685B6803F40033002B03D010
:102350003A69FB6813433B611B4A3B6953601A4B64
:102360001B683B61FB68DB433A6913403B613B6898
:102370005B6803F48033002B03D03A69FB68134396
:102380003B61114A3B6913607B6901337B613B68A8
:102390001A687B6922FA03F3002B7FF493AE00BF27
:1023A00000BF1C37BD465DF8047B7047001002403B
:1023B000000001400004004800080048000C0048EC
:1023C00000100048001400480004014080B483B0AD
:1023D00000AF78600B467B8013467B707B78002BC8
:1023E00003D07A887B689A6102E07A887B689A6277
:1023F00000BF0C37BD465DF8047B704780B582B0E6
:1024000000AF78607B68002B01D101238DE07B68F1
:1024100093F84130DBB2002B06D17B68002283F8B1
:1024200040207868FFF7A4F97B68242283F84120D4
:102430007B681B681A687B681B6822F001021A60BF
:102440007B685A687B681B6822F070621A617B683F
:102450001B689A687B681B6822F400429A607B685C
:10246000DB68012B07D17B689A687B681B6842F4A4
:1024700000429A6006E07B689A687B681B6842F4B9
:1024800004429A607B68DB68022B08D17B681B687A
:102490005A687B681B6842F400625A6007E07B68F8
:1024A0001B685A687B681B6822F400625A607B686C
:1024B0001B685B687A68126843F0007343F400435A
:1024C00053607B681B68DA687B681B6822F40042F3
:1024D000DA607B681A697B685B6942EA03017B68A2
:1024E0009B691A027B681B680A43DA607B68D969BA
:1024F0007B681A6A7B681B680A431A607B681B68E2
:102500001A687B681B6842F001021A607B6800222F
:102510005A647B68202283F841207B6800221A637A
:102520007B68002283F84220002318460837BD4606
:1025300080BD80B584B000AF78607B681B689B6904
:10254000FB607B681B681B68BB607B685B6B002B58
:1025500005D07B685B6BBA68F9687868984700BFFC
:102560001037BD4680BD80B483B000AF786039605D
:102570007B6893F84130DBB2202B38D17B6893F82D
:102580004030012B01D1022332E07B68012283F825
:1025900040207B68242283F841207B681B681A68EE
:1025A0007B681B6822F001021A607B681B681A684E
:1025B0007B681B6822F480521A607B681B6819686C
:1025C0007B681B683A680A431A607B681B681A6854
:1025D0007B681B6842F001021A607B68202283F846
:1025E00041207B68002283F84020002300E0022382
:1025F00018460C37BD465DF8047B704780B485B043
:1026000000AF786039607B6893F84130DBB2202BF3
:1026100039D17B6893F84030012B01D1022333E09C
:102620007B68012283F840207B68242283F84120C4
:102630007B681B681A687B681B6822F001021A60BD
:102640007B681B681B68FB60FB6823F47063FB609E
:102650003B681B02FA681343FB607B681B68FA68DF
:102660001A607B681B681A687B681B6842F001026D
:102670001A607B68202283F841207B68002283F85F
:102680004020002300E0022318461437BD465DF8C1
:10269000047B704780B485B000AF78607B68002B06
:1026A00041D14B4B1B6803F4C063B3F5806F31D14C
:1026B000474BD3F88030464A23F48073C2F8803009
:1026C000434B1B6823F4C063414A43F40073136017
:1026D000404B1B68322202FB03F33F4AA2FB032359
:1026E0009B0C0133FB6002E0FB68013BFB60384B55
:1026F0005B6903F48063B3F5806F02D1FB68002B44
:10270000F2D1334B5B6903F48063B3F5806F58D12A
:10271000032357E02E4BD3F880302D4A23F48073E7
:10272000C2F880304DE07B68B3F5007F41D1284B83
:102730001B6803F4C063B3F5806F31D1244BD3F829
:102740008030234A43F48073C2F88030204B1B68EA
:1027500023F4C0631E4A43F4007313601D4B1B68CF
:10276000322202FB03F31C4AA2FB03239B0C01331E
:10277000FB6002E0FB68013BFB60154B5B6903F407
:102780008063B3F5806F02D1FB68002BF2D1104B50
:102790005B6903F48063B3F5806F12D1032311E00A
:1027A0000B4BD3F880300A4A43F48073C2F8803070
:1027B00007E0074B1B6823F4C063054A43F48063BA
:1027C0001360002318461437BD465DF8047B70473C
:1027D000007000400000002083DE1B4380B400AF87
:1027E000054B9B68044A43F48043936000BFBD4699
:1027F0005DF8047B704700BF0070004080B588B072
:1028000000AF78607B68002B01D10123FEE27B687A
:102810001B6803F00103002B75D0974B9B6803F0F6
:102820000C03BB61944BDB6803F003037B61BB6962
:102830000C2B02D17B69032B02D0BB69082B0BD177
:102840008D4B1B6803F40033002B5BD07B685B6807
:10285000002B57D10123D9E27B685B68B3F5803F39
:1028600006D1854B1B68844A43F4803313601DE016
:102870007B685B68B3F5A02F0CD17F4B1B687E4A49
:1028800043F4802313607C4B1B687B4A43F4803302
:1028900013600BE0784B1B68774A23F48033136096
:1028A000754B1B68744A23F4802313607B685B6854
:1028B000002B13D0FFF7C0FA386108E0FFF7BCFA2D
:1028C00002463B69D31A642B01D903239EE26A4B6B
:1028D0001B6803F40033002BF0D014E0FFF7ACFAD0
:1028E000386108E0FFF7A8FA02463B69D31A642B67
:1028F00001D903238AE2604B1B6803F40033002BE9
:10290000F0D100E000BF7B681B6803F00203002BDE
:1029100075D0594B9B6803F00C03BB61564BDB68C9
:1029200003F003037B61BB690C2B02D17B69022B93
:1029300002D0BB69042B1FD14F4B1B6803F480638B
:10294000002B05D07B68DB68002B01D101235DE201
:10295000494B5B6823F0FE427B681B691B064649B6
:1029600013434B60454B1B681846FFF719FA0346A3
:10297000002B43D0012349E27B68DB68002B23D086
:102980003D4B1B683C4A43F480731360FFF754FAD5
:10299000386108E0FFF750FA02463B69D31A022B70
:1029A00001D9032332E2344B1B6803F48063002B0C
:1029B000F0D0314B5B6823F0FE427B681B691B063D
:1029C0002D4913434B601AE02B4B1B682A4A23F412
:1029D00080731360FFF730FA386108E0FFF72CFAD4
:1029E00002463B69D31A022B01D903230EE2224B84
:1029F0001B6803F48063002BF0D100E000BF7B680C
:102A00001B6803F00803002B41D07B685B69002B37
:102A10001CD0194BD3F89430174A43F00103C2F885
:102A20009430FFF709FA386108E0FFF705FA02462B
:102A30003B69D31A022B01D90323E7E10E4BD3F8EC
:102A4000943003F00203002BEFD020E00A4BD3F8C0
:102A50009430094A23F00103C2F89430FFF7ECF9EF
:102A600038610DE0FFF7E8F902463B69D31A022B03
:102A700006D90323CAE100BF001002400400002071
:102A80008C4BD3F8943003F00203002BEAD17B681F
:102A90001B6803F00403002B00F0A6800023FB77E3
:102AA000844B9B6D03F08053002B01D1012300E088
:102AB0000023002B0DD07F4B9B6D7E4A43F080534B
:102AC00093657C4B9B6D03F08053FB60FB68012397
:102AD000FB77794B1B6803F48073002B18D1764B7E
:102AE0001B68754A43F480731360FFF7A5F93861DA
:102AF00008E0FFF7A1F902463B69D31A022B01D97E
:102B0000032383E16C4B1B6803F48073002BF0D02C
:102B10007B689B68012B08D1664BD3F89030654ADF
:102B200043F00103C2F8903024E07B689B68052BDA
:102B300010D1604BD3F890305E4A43F00403C2F8E2
:102B400090305C4BD3F890305A4A43F00103C2F8FE
:102B500090300FE0574BD3F89030564A23F00103E2
:102B6000C2F89030534BD3F89030524A23F004030C
:102B7000C2F890307B689B68002B16D0FFF75CF999
:102B800038610AE0FFF758F902463B69D31A41F26F
:102B90008832934201D9032338E1464BD3F8903071
:102BA00003F00203002BEDD015E0FFF745F9386183
:102BB0000AE0FFF741F902463B69D31A41F2883235
:102BC000934201D9032321E13A4BD3F8903003F02B
:102BD0000203002BEDD1FB7F012B05D1354B9B6D03
:102BE000344A23F0805393657B681B6803F020030D
:102BF000002B3CD07B689B69002B1CD02D4BD3F85D
:102C000098302C4A43F00103C2F89830FFF714F9CA
:102C1000386108E0FFF710F902463B69D31A022B2E
:102C200001D90323F2E0234BD3F8983003F00203D9
:102C3000002BEFD01BE01F4BD3F898301D4A23F038
:102C40000103C2F89830FFF7F7F8386108E0FFF7A2
:102C5000F3F802463B69D31A022B01D90323D5E0CE
:102C6000144BD3F8983003F00203002BEFD17B68AC
:102C7000DB69002B00F0C9800E4B9B6803F00C034E
:102C80000C2B00F083807B68DB69022B5ED1094B43
:102C90001B68084A23F080731360FFF7CDF8386192
:102CA0000CE0FFF7C9F802463B69D31A022B05D99D
:102CB0000323ABE00010024000700040554B1B683E
:102CC00003F00073002BECD1524BDA68524B1340E7
:102CD0007A68116A7A68526A013A120111437A6875
:102CE000926A120211437A68126B5208013A520535
:102CF00011437A68526B5208013A520611437A68BE
:102D0000D26AD2060A4343491343CB60414B1B6846
:102D1000404A43F0807313603E4BDB683D4A43F00A
:102D20008073D360FFF788F8386108E0FFF784F814
:102D300002463B69D31A022B01D9032366E0354BC7
:102D40001B6803F00073002BF0D05EE0314B1B6872
:102D5000304A23F080731360FFF76EF8386108E0A3
:102D6000FFF76AF802463B69D31A022B01D9032305
:102D70004CE0284B1B6803F00073002BF0D1254B6F
:102D8000DA682449254B1340CB603EE07B68DB6961
:102D9000012B01D1012339E01E4BDB687B617B698C
:102DA00003F003027B681B6A9A422CD17B6903F013
:102DB000F0027B685B6A013B1B019A4223D17B696D
:102DC00003F4FE427B689B6A1B029A421BD17B691B
:102DD00003F078427B68DB6ADB069A4213D17B6999
:102DE00003F4C0027B681B6B5B08013B5B059A42E6
:102DF00009D17B6903F0C0627B685B6B5B08013BB8
:102E00005B069A4201D0012300E0002318462037D8
:102E1000BD4680BD001002400C809F01FCFFEEFE0D
:102E200080B586B000AF7860396000237B617B6835
:102E3000002B01D101231EE1914B1B6803F00F030E
:102E40003A689A4210D98E4B1B6823F00F028C49C6
:102E50003B6813430B608A4B1B6803F00F033A680F
:102E60009A4201D0012306E17B681B6803F001034D
:102E7000002B73D07B685B68032B29D1814B1B68C7
:102E800003F00073002B01D10123F4E000F09EF960
:102E900038613B697C4A93423FD97A4B9B6803F087
:102EA000F003002B09D07B681B6803F00203002BA2
:102EB00033D07B689B68002B2FD1724B9B6823F02B
:102EC000F003704A43F08003936080237B6124E029
:102ED0007B685B68022B07D16A4B1B6803F40033E5
:102EE000002B09D10123C6E0664B1B6803F4806305
:102EF000002B01D10123BEE000F0CEF838613B6920
:102F0000614A934209D95F4B9B6823F0F0035D4A05
:102F100043F08003936080237B615A4B9B6823F0CE
:102F200003027B685B68574913438B60FEF784FF9D
:102F3000F8600AE0FEF780FF0246FB68D31A41F210
:102F40008832934201D9032395E04E4B9B6803F0EE
:102F50000C027B685B689B009A42EBD17B681B6824
:102F600003F00203002B23D07B681B6803F00403EB
:102F7000002B05D0434B9B68424A43F4E0639360C7
:102F80007B681B6803F00803002B07D03D4B9B6850
:102F900023F47C533B4A43F4E0639360394B9B68D2
:102FA00023F0F0027B689B68364913438B6008E08E
:102FB0007B69802B05D1334B9B68324A23F0F003A9
:102FC00093602F4B1B6803F00F033A689A421DD29F
:102FD0002B4B1B6823F00F0229493B6813430B60FE
:102FE000FEF72AFFF8600AE0FEF726FF0246FB68BC
:102FF000D31A41F28832934201D903233BE0204B9C
:103000001B6803F00F033A689A42EDD17B681B6896
:1030100003F00403002B08D01A4B9B6823F4E062F2
:103020007B68DB68174913438B607B681B6803F080
:103030000803002B09D0134B9B6823F460527B6874
:103040001B69DB000F4913438B6000F025F8024633
:103050000C4B9B681B0903F00F030C49CB5C03F07E
:103060001F0322FA03F30A4A13600A4B1B6818462F
:10307000FEF796FE034618461837BD4680BD00BFD2
:10308000002002400010024000B4C4049C810008EB
:10309000000000200400002080B487B000AF2C4B5B
:1030A0009B6803F00C03042B02D12A4B3B6147E0E1
:1030B000274B9B6803F00C03082B02D1264B3B6186
:1030C0003EE0234B9B6803F00C030C2B36D1204BC6
:1030D000DB6803F00303FB601D4BDB681B0903F097
:1030E0000F030133BB60FB68032B0CD11A4ABB688A
:1030F000B2FBF3F3164AD268120A02F07F0202FB17
:1031000003F37B610CE0134ABB68B2FBF3F3104A94
:10311000D268120A02F07F0202FB03F37B6100BF58
:103120000B4BDB685B0E03F0030301335B007B603A
:103130007A697B68B2FBF3F33B6101E000233B61FA
:103140003B6918461C37BD465DF8047B704700BFDD
:10315000001002400024F40000127A0080B400AF96
:10316000034B1B681846BD465DF8047B704700BFE3
:103170000000002080B500AFFFF7F0FF0246064BCD
:103180009B681B0A03F007030449CB5C03F01F0391
:1031900022FA03F3184680BD00100240AC810008FB
:1031A00080B500AFFFF7DAFF0246064B9B68DB0AEB
:1031B00003F007030449CB5C03F01F0322FA03F377
:1031C000184680BD00100240AC81000880B487B072
:1031D00000AF1E4BDB6803F003033B611B4BDB6856
:1031E0001B0903F00F030133FB603B69032B0CD178
:1031F000174AFB68B2FBF3F3144AD268120A02F0D2
:103200007F0202FB03F37B610CE0124AFB68B2FB16
:10321000F3F30E4AD268120A02F07F0202FB03F3B4
:103220007B6100BF094BDB685B0E03F003030133D6
:103230005B00BB607A69BB68B2FBF3F37B607B68C1
:1032400018461C37BD465DF8047B704700100240ED
:1032500000127A000024F40080B586B000AF7860D8
:103260000023FB740023BB747B681B6803F40023FA
:10327000002B00F0988000237B74434B9B6D03F080
:103280008053002B0DD1404B9B6D3F4A43F0805340
:1032900093653D4B9B6D03F08053BB60BB6801237E
:1032A0007B743A4B1B68394A43F480731360FEF712
:1032B000C3FDF86009E0FEF7BFFD0246FB68D31AC4
:1032C000022B02D90323FB7405E0304B1B6803F487
:1032D0008073002BEFD0FB7C002B59D12A4BD3F805
:1032E000903003F440737B617B69002B1ED07B68B8
:1032F0001B6C7A699A4219D0234BD3F8903023F48F
:1033000040737B61204BD3F890301F4A43F48033E5
:10331000C2F890301C4BD3F890301B4A23F4803312
:10332000C2F89030184A7B69C2F890307B6903F08C
:103330000103002B16D0FEF77FFDF8600BE0FEF7CF
:103340007BFD0246FB68D31A41F28832934202D9D0
:103350000323FB7406E00C4BD3F8903003F0020318
:10336000002BECD0FB7C002B0BD1074BD3F890301B
:1033700023F440727B681B6C03491343C1F89030FF
:1033800008E0FB7CBB7405E00010024000700040C8
:10339000FB7CBB747B7C012B05D1A64B9B6DA54AA6
:1033A00023F0805393657B681B6803F00103002BB7
:1033B0000AD0A04BD3F8883023F003027B685B6807
:1033C0009C491343C1F888307B681B6803F00203F3
:1033D000002B0AD0974BD3F8883023F00C027B687F
:1033E0009B6894491343C1F888307B681B6803F0DD
:1033F0000403002B0AD08F4BD3F8883023F030021F
:103400007B68DB688B491343C1F888307B681B6895
:1034100003F00803002B0AD0864BD3F8883023F042
:10342000C0027B681B6983491343C1F888307B68FD
:103430001B6803F02003002B0AD07E4BD3F88830A2
:1034400023F440627B685B697A491343C1F8883092
:103450007B681B6803F04003002B0AD0754BD3F840
:10346000883023F440527B689B6972491343C1F84A
:1034700088307B681B6803F08003002B0AD06D4BFB
:10348000D3F8883023F440427B68DB6969491343F1
:10349000C1F888307B681B6803F48073002B0AD066
:1034A000644BD3F8883023F440327B681B6A61494F
:1034B0001343C1F888307B681B6803F40073002B4A
:1034C0000AD05C4BD3F8883023F440227B685B6AD7
:1034D00058491343C1F888307B681B6803F4806344
:1034E000002B15D0534BD3F8883023F440127B685F
:1034F0009B6A50491343C1F888307B689B6AB3F5D7
:10350000801F05D14B4BDB684A4A43F48013D360DC
:103510007B681B6803F40063002B15D0454BD3F880
:10352000883023F440027B68DB6A42491343C1F8C8
:1035300088307B68DB6AB3F5800F05D13D4BDB68D3
:103540003C4A43F48013D3607B681B6803F48053C8
:10355000002B15D0374BD3F8883023F040727B68AE
:103560001B6B34491343C1F888307B681B6BB3F184
:10357000807F05D12F4BDB682E4A43F48013D36044
:103580007B681B6803F40053002B15D0294BD3F83C
:10359000883023F040627B685B6B26491343C1F897
:1035A00088307B685B6BB3F1006F05D1214BDB6822
:1035B000204A43F48013D3607B681B6803F4804384
:1035C000002B15D01B4BD3F8883023F040627B686A
:1035D0009B6B18491343C1F888307B689B6BB3F130
:1035E000006F05D1134BDB68124A43F48013D3609C
:1035F0007B681B6803F40043002B15D00D4BD3F8F8
:10360000883023F040527B68DB6B0A491343C1F8D2
:1036100088307B68DB6BB3F1805F05D1054BDB68DD
:10362000044A43F48033D360BB7C18461837BD4648
:1036300080BD00BF0010024080B582B000AF78604E
:103640007B68002B01D1012349E07B6893F83D3072
:10365000DBB2002B06D17B68002283F83C2078681F
:10366000FEF704F97B68022283F83D207B681A6824
:103670007B6804331946104600F000FD7B68012288
:1036800083F848207B68012283F83E207B68012272
:1036900083F83F207B68012283F840207B68012269
:1036A00083F841207B68012283F842207B68012255
:1036B00083F843207B68012283F844207B68012241
:1036C00083F845207B68012283F846207B6801222D
:1036D00083F847207B68012283F83D2000231846A9
:1036E0000837BD4680BD000080B584B000AF78606B
:1036F00039603B68002B09D17B6893F83E30DBB220
:10370000012B14BF01230023DBB23CE03B68042BF8
:1037100009D17B6893F83F30DBB2012B14BF012342
:103720000023DBB22FE03B68082B09D17B6893F8BC
:103730004030DBB2012B14BF01230023DBB222E0B7
:103740003B680C2B09D17B6893F84130DBB2012B2D
:1037500014BF01230023DBB215E03B68102B09D115
:103760007B6893F84230DBB2012B14BF01230023A6
:10377000DBB208E07B6893F84330DBB2012B14BF67
:1037800001230023DBB2002B01D0012397E03B682B
:10379000002B04D17B68022283F83E2023E03B68A3
:1037A000042B04D17B68022283F83F201BE03B6896
:1037B000082B04D17B68022283F8402013E03B6889
:1037C0000C2B04D17B68022283F841200BE03B687C
:1037D000102B04D17B68022283F8422003E07B682F
:1037E000022283F843207B681B680122396818464F
:1037F00000F0D8FF7B681B68334A934213D07B6884
:103800001B68324A93420ED07B681B68304A934251
:1038100009D07B681B682F4A934204D07B681B68E1
:103820002D4A934201D1012300E00023002B07D051
:103830007B681B685A6C7B681B6842F400425A64C0
:103840007B681B68204A934218D07B681B68B3F1E1
:10385000804F13D07B681B68204A93420ED07B6850
:103860001B681F4A934209D07B681B68174A934222
:1038700004D07B681B68164A934215D17B681B688D
:103880009A68184B1340FB60FB68062B15D0FB6849
:10389000B3F5803F11D07B681B681A687B681B6892
:1038A00042F001021A6008E07B681B681A687B68B6
:1038B0001B6842F001021A6000E000BF00231846B6
:1038C0001037BD4680BD00BF002C014000340140D0
:1038D0000040014000440140004801400004004015
:1038E000000800400700010080B586B000AF786096
:1038F00039607B68002B01D1012397E07B6893F846
:103900003D30DBB2002B06D17B68002283F83C20DF
:103910007868FDF7CBFF7B68022283F83D207B6847
:103920001B689B687A68126823F4A03323F00703AE
:1039300093607B681A687B6804331946104600F070
:103940009DFB7B681B689B687B617B681B689B6930
:103950003B617B681B681B6AFB603B681B687A697C
:1039600013437B613B6923F4407323F003033B6102
:103970003B689A683B689B691B0213433A6913438F
:103980003B613B6923F4406323F00C033B613B69DB
:1039900023F4704323F0F0033B613B68DA683B6833
:1039A000DB691B0213433A6913433B613B681B69A4
:1039B0001A013B681B6A1B0313433A6913433B61BB
:1039C000FB6823F02203FB60FB6823F08803FB60A5
:1039D0003B685A683B685B691B011343FA681343F1
:1039E000FB607B681B687A699A607B681B683A6930
:1039F0009A617B681B68FA681A627B68012283F807
:103A000048207B68012283F83E207B68012283F8EE
:103A10003F207B68012283F844207B68012283F8E1
:103A200045207B68012283F83D2000231846183783
:103A3000BD4680BD80B584B000AF786039607B68DA
:103A400093F83E30FB737B6893F83F30BB737B6821
:103A500093F844307B737B6893F845303B733B6845
:103A6000002B10D1FB7B012B02D17B7B012B01D0E2
:103A7000012369E07B68022283F83E207B680222F2
:103A800083F8442031E03B68042B10D1BB7B012B31
:103A900002D13B7B012B01D0012355E07B68022240
:103AA00083F83F207B68022283F845201DE0FB7BE2
:103AB000012B08D1BB7B012B05D17B7B012B02D1D4
:103AC0003B7B012B01D001233EE07B68022283F87F
:103AD0003E207B68022283F83F207B68022283F825
:103AE00044207B68022283F845203B68002B03D0EA
:103AF0003B68042B08D00FE07B681B680122002183
:103B0000184600F04FFE16E07B681B680122042176
:103B1000184600F047FE0EE07B681B68012200217A
:103B2000184600F03FFE7B681B68012204211846FE
:103B300000F038FE00BF7B681B681A687B681B6852
:103B400042F001021A60002318461037BD4680BDBE
:103B500080B584B000AF78607B681B68DB68FB6071
:103B60007B681B681B69BB60BB6803F00203002B0A
:103B700020D0FB6803F00203002B1BD07B681B687E
:103B80006FF002021A617B6801221A777B681B685A
:103B90009B6903F00303002B03D0786800F050FA10
:103BA00005E0786800F042FA786800F053FA7B6824
:103BB00000221A77BB6803F00403002B20D0FB68B7
:103BC00003F00403002B1BD07B681B686FF004021A
:103BD0001A617B6802221A777B681B689B6903F471
:103BE0004073002B03D0786800F02AFA05E078686B
:103BF00000F01CFA786800F02DFA7B6800221A7732
:103C0000BB6803F00803002B20D0FB6803F0080317
:103C1000002B1BD07B681B686FF008021A617B6861
:103C200004221A777B681B68DB6903F00303002B0F
:103C300003D0786800F004FA05E0786800F0F6F93F
:103C4000786800F007FA7B6800221A77BB6803F0F7
:103C50001003002B20D0FB6803F01003002B1BD0B7
:103C60007B681B686FF010021A617B6808221A7764
:103C70007B681B68DB6903F44073002B03D0786812
:103C800000F0DEF905E0786800F0D0F9786800F01F
:103C9000E1F97B6800221A77BB6803F00103002B6F
:103CA0000CD0FB6803F00103002B07D07B681B6876
:103CB0006FF001021A61786800F0AEF9BB6803F09A
:103CC0008003002B04D1BB6803F40053002B0CD0FD
:103CD000FB6803F08003002B07D07B681B686FF440
:103CE00002521A61786800F09BFEBB6803F480738F
:103CF000002B0CD0FB6803F08003002B07D07B68FF
:103D00001B686FF480721A61786800F093FEBB68DC
:103D100003F04003002B0CD0FB6803F04003002BA2
:103D200007D07B681B686FF040021A61786800F06A
:103D30009BF9BB6803F02003002B0CD0FB6803F059
:103D40002003002B07D07B681B686FF020021A61EC
:103D5000786800F05BFEBB6803F48013002B0CD086
:103D6000FB6803F48013002B07D07B681B686FF49B
:103D700080121A61786800F067FEBB6803F40013D4
:103D8000002B0CD0FB6803F40013002B07D07B68DA
:103D90001B686FF400121A61786800F05FFEBB6860
:103DA00003F48003002B0CD0FB6803F48003002B8A
:103DB00007D07B681B686FF480021A61786800F096
:103DC00057FEBB6803F40003002B0CD0FB6803F420
:103DD0000003002B07D07B681B686FF400021A6198
:103DE000786800F04FFE00BF1037BD4680BD000070
:103DF00080B586B000AFF860B9607A600023FB75CB
:103E0000FB6893F83C30012B01D10223FFE0FB68F3
:103E1000012283F83C207B68142B00F2F08001A281
:103E200052F823F0793E0008FF3F0008FF3F0008EA
:103E3000FF3F0008B93E0008FF3F0008FF3F0008B1
:103E4000FF3F0008FB3E0008FF3F0008FF3F00085F
:103E5000FF3F00083B3F0008FF3F0008FF3F00080E
:103E6000FF3F00087D3F0008FF3F0008FF3F0008BC
:103E7000FF3F0008BD3F0008FB681B68B968184693
:103E800000F092F9FB681B689A69FB681B6842F0B6
:103E900008029A61FB681B689A69FB681B6822F03C
:103EA00004029A61FB681B689969BB681A69FB6820
:103EB0001B680A439A61A5E0FB681B68B96818464D
:103EC00000F004FAFB681B689A69FB681B6842F4FF
:103ED00000629A61FB681B689A69FB681B6822F4A0
:103EE00080629A61FB681B689969BB681B691A024A
:103EF000FB681B680A439A6184E0FB681B68B96829
:103F0000184600F06FFAFB681B68DA69FB681B68EB
:103F100042F00802DA61FB681B68DA69FB681B681B
:103F200022F00402DA61FB681B68D969BB681A6970
:103F3000FB681B680A43DA6164E0FB681B68B968C8
:103F4000184600F0D9FAFB681B68DA69FB681B6841
:103F500042F40062DA61FB681B68DA69FB681B687F
:103F600022F48062DA61FB681B68D969BB681B694F
:103F70001A02FB681B680A43DA6143E0FB681B68AE
:103F8000B968184600F044FBFB681B681A6DFB68B3
:103F90001B6842F008021A65FB681B681A6DFB6813
:103FA0001B6822F004021A65FB681B68196DBB6868
:103FB0001A69FB681B680A431A6523E0FB681B68E3
:103FC000B968184600F088FBFB681B681A6DFB682F
:103FD0001B6842F400621A65FB681B681A6DFB6877
:103FE0001B6822F480621A65FB681B68196DBB6848
:103FF0001B691A02FB681B680A431A6502E0012369
:10400000FB7500BFFB68002283F83C20FB7D18464F
:104010001837BD4680BD00BF80B483B000AF786064
:1040200000BF0C37BD465DF8047B704780B483B099
:1040300000AF786000BF0C37BD465DF8047B704769
:1040400080B483B000AF786000BF0C37BD465DF828
:10405000047B704780B483B000AF786000BF0C373A
:10406000BD465DF8047B704780B483B000AF7860D4
:1040700000BF0C37BD465DF8047B704780B485B047
:1040800000AF786039607B681B68FB607B683F4AE3
:1040900093420FD07B68B3F1804F0BD07B683C4AD2
:1040A000934207D07B683B4A934203D07B683A4AED
:1040B000934208D1FB6823F07003FB603B685B68A8
:1040C000FA681343FB607B68304A93421BD07B68DD
:1040D000B3F1804F17D07B682D4A934213D07B6891
:1040E0002C4A93420FD07B682B4A93420BD07B68BB
:1040F0002A4A934207D07B68294A934203D07B68BF
:10410000284A934208D1FB6823F44073FB603B6864
:10411000DB68FA681343FB60FB6823F080023B68AE
:104120005B691343FB603B689A687B68DA623B68B3
:104130001A687B689A627B68144A93420FD07B6846
:10414000154A93420BD07B68144A934207D07B6890
:10415000134A934203D07B68124A934203D13B68CF
:104160001A697B681A637B681B6843F004027B68EA
:104170001A607B6801225A617B68FA681A6000BF86
:104180001437BD465DF8047B704700BF002C01402A
:10419000000400400008004000340140004001409D
:1041A000004401400048014080B487B000AF78600F
:1041B00039607B681B6A7B617B681B6A23F00102A4
:1041C0007B681A627B685B683B617B689B69FB600C
:1041D000FB6823F4803323F07003FB60FB6823F05B
:1041E0000303FB603B681B68FA681343FB607B6951
:1041F00023F002037B613B689B687A6913437B6110
:104200007B682D4A93420FD07B682C4A93420BD097
:104210007B682B4A934207D07B682A4A934203D09B
:104220007B68294A93420ED17B681B6A23F0040203
:104230007B681A627B6923F008037B613B68DB685B
:104240007A6913437B617B681B4A93420FD07B687A
:104250001A4A93420BD07B68194A934207D07B6875
:10426000184A934203D07B68174A934211D13B69A5
:1042700023F480733B613B6923F400733B613B682B
:104280005B693A6913433B613B689B693A69134335
:104290003B617B683A695A607B68FA689A613B685F
:1042A0005A687B685A637B687A691A6200BF1C3758
:1042B000BD465DF8047B7047002C0140003401408E
:1042C00000400140004401400048014080B487B0F4
:1042D00000AF786039607B681B6A7B617B681B6A12
:1042E00023F010027B681A627B685B683B617B6825
:1042F0009B69FB60FB6823F0807323F4E043FB6061
:10430000FB6823F44073FB603B681B681B02FA6880
:104310001343FB607B6923F020037B613B689B6850
:104320001B017A6913437B617B68294A934203D05E
:104330007B68284A93420FD17B681B6A23F04002B6
:104340007B681A627B6923F080037B613B68DB68D2
:104350001B017A6913437B617B681D4A93420FD02E
:104360007B681C4A93420BD07B681B4A934207D060
:104370007B681A4A934203D07B68194A934213D14F
:104380003B6923F480633B613B6923F400633B6139
:104390003B685B699B003A6913433B613B689B69DF
:1043A0009B003A6913433B617B683A695A607B68BA
:1043B000FA689A613B685A687B689A637B687A6995
:1043C0001A6200BF1C37BD465DF8047B704700BF12
:1043D000002C0140003401400040014000440140F5
:1043E0000048014080B487B000AF786039607B68D6
:1043F0001B6A7B617B681B6A23F480727B681A628C
:104400007B685B683B617B68DB69FB60FB6823F46E
:10441000803323F07003FB60FB6823F00303FB6031
:104420003B681B68FA681343FB607B6923F40073E5
:104430007B613B689B681B027A6913437B617B68E5
:10444000284A934203D07B68274A93420FD17B6866
:104450001B6A23F480627B681A627B6923F4006321
:104460007B613B68DB681B027A6913437B617B6875
:104470001C4A93420FD07B681B4A93420BD07B6847
:104480001A4A934207D07B68194A934203D07B684B
:10449000184A934213D13B6923F480533B613B6933
:1044A00023F400533B613B685B691B013A6913438A
:1044B0003B613B689B691B013A6913433B617B6825
:1044C0003A695A607B68FA68DA613B685A687B68C7
:1044D000DA637B687A691A6200BF1C37BD465DF8F3
:1044E000047B7047002C0140003401400040014033
:1044F000004401400048014080B487B000AF7860BC
:1045000039607B681B6A7B617B681B6A23F480527D
:104510007B681A627B685B683B617B68DB69FB6078
:10452000FB6823F0807323F4E043FB60FB6823F413
:104530004073FB603B681B681B02FA681343FB6017
:104540007B6923F400537B613B689B681B037A699A
:1045500013437B617B68294A934203D07B68284AD6
:1045600093420FD17B681B6A23F480427B681A62F6
:104570007B6923F400437B613B68DB681B037A693A
:1045800013437B617B681D4A93420FD07B681C4AB2
:1045900093420BD07B681B4A934207D07B681A4A30
:1045A000934203D07B68194A934213D13B6923F4A9
:1045B00080433B613B6923F400433B613B685B699B
:1045C0009B013A6913433B613B689B699B013A69D4
:1045D00013433B617B683A695A607B68FA68DA6129
:1045E0003B685A687B681A647B687A691A6200BF04
:1045F0001C37BD465DF8047B704700BF002C0140AE
:1046000000340140004001400044014000480140A6
:1046100080B487B000AF786039607B681B6A3B610B
:104620007B681B6A23F480327B681A627B685B6854
:104630007B617B681B6DFB60FB6823F4803323F098
:104640007003FB603B681B68FA681343FB603B69BF
:1046500023F400333B613B689B681B043A691343B6
:104660003B617B68174A93420FD07B68164A93429E
:104670000BD07B68154A934207D07B68144A93425B
:1046800003D07B68134A934209D17B6923F48033BA
:104690007B613B685B691B027A6913437B617B68C2
:1046A0007A695A607B68FA681A653B685A687B6861
:1046B0009A647B683A691A6200BF1C37BD465DF890
:1046C000047B7047002C0140003401400040014051
:1046D000004401400048014080B487B000AF7860DA
:1046E00039607B681B6A3B617B681B6A23F480121C
:1046F0007B681A627B685B687B617B681B6DFB6013
:10470000FB6823F0807323F4E043FB603B681B6885
:104710001B02FA681343FB603B6923F400133B61FF
:104720003B689B681B053A6913433B617B68184AE9
:1047300093420FD07B68174A93420BD07B68164A8E
:10474000934207D07B68154A934203D07B68144A92
:10475000934209D17B6923F480237B613B685B69C9
:104760009B027A6913437B617B687A695A607B6834
:10477000FA681A653B685A687B68DA647B683A694C
:104780001A6200BF1C37BD465DF8047B704700BF4E
:10479000002C014000340140004001400044014031
:1047A0000048014080B487B000AFF860B9607A601B
:1047B000BB6803F01F03012202FA03F37B61FB686D
:1047C0001A6A7B69DB431A40FB681A62FB681A6A43
:1047D000BB6803F01F03796801FA03F31A43FB680F
:1047E0001A6200BF1C37BD465DF8047B70470000AD
:1047F00080B485B000AF786039607B6893F83C3056
:10480000012B01D1022365E07B68012283F83C2063
:104810007B68022283F83D207B681B685B68FB6035
:104820007B681B689B68BB607B681B682C4A934253
:1048300004D07B681B682B4A934208D1FB6823F4A1
:104840007003FB603B685B68FA681343FB60FB68BE
:1048500023F0007323F07003FB603B681B68FA6869
:104860001343FB607B681B68FA685A607B681B68AF
:104870001B4A934218D07B681B68B3F1804F13D05A
:104880007B681B68184A93420ED07B681B68174AE6
:10489000934209D07B681B68124A934204D07B681C
:1048A0001B68134A93420CD1BB6823F08003BB60A2
:1048B0003B689B68BA681343BB607B681B68BA6837
:1048C0009A607B68012283F83D207B68002283F890
:1048D0003C20002318461437BD465DF8047B704722
:1048E000002C01400034014000040040000800405A
:1048F0000040014080B485B000AF7860396000238B
:10490000FB607B6893F83C30012B01D1022373E0FC
:104910007B68012283F83C20FB6823F0FF023B68A0
:10492000DB681343FB60FB6823F440723B689B68C1
:104930001343FB60FB6823F480623B685B681343AE
:10494000FB60FB6823F400623B681B681343FB6059
:10495000FB6823F480523B681B691343FB60FB68D0
:1049600023F400523B685B691343FB60FB6823F44C
:1049700080423B681B6B1343FB60FB6823F470228F
:104980003B689B691B041343FB60FB6823F0805268
:104990003B68DB691343FB607B681B68194A9342E1
:1049A00004D07B681B68184A93421CD1FB6823F42F
:1049B00070023B689B6A1B051343FB60FB6823F096
:1049C00080723B681B6A1343FB60FB6823F0007234
:1049D0003B685B6A1343FB60FB6823F000523B6853
:1049E000DB6A1343FB607B681B68FA685A647B6868
:1049F000002283F83C20002318461437BD465DF89A
:104A0000047B7047002C01400034014080B483B027
:104A100000AF786000BF0C37BD465DF8047B70477F
:104A200080B483B000AF786000BF0C37BD465DF83E
:104A3000047B704780B483B000AF786000BF0C3750
:104A4000BD465DF8047B704780B483B000AF7860EA
:104A500000BF0C37BD465DF8047B704780B483B05F
:104A600000AF786000BF0C37BD465DF8047B70472F
:104A700080B483B000AF786000BF0C37BD465DF8EE
:104A8000047B704780B483B000AF786000BF0C3700
:104A9000BD465DF8047B704780B582B000AF78609A
:104AA0007B68002B01D1012342E07B68D3F888307A
:104AB000002B06D17B68002283F884207868FCF7FD
:104AC000AFFF7B682422C3F888207B681B681A68C4
:104AD0007B681B6822F001021A607B689B6A002BCE
:104AE00002D0786800F08EFB786800F0BFF80346CB
:104AF000012B01D101231BE07B681B685A687B688E
:104B00001B6822F490425A607B681B689A687B6835
:104B10001B6822F02A029A607B681B681A687B680F
:104B20001B6842F001021A60786800F00DFC034631
:104B300018460837BD4680BD80B58AB002AFF86020
:104B4000B9603B601346FB80FB68D3F88830202BAC
:104B500040F08680BB68002B02D0FB88002B01D17F
:104B600001237EE0FB680022C3F89020FB6821222D
:104B7000C3F88820FDF760F97861FB68FA88A3F82C
:104B80005420FB68FA88A3F85620FB689B68B3F5AD
:104B9000805F08D1FB681B69002B04D10023FB61F7
:104BA000BB68BB6103E0BB68FB610023BB613AE00B
:104BB0003B6800937B6900228021F86800F06EFC5E
:104BC0000346002B05D0FB682022C3F8882003236E
:104BD00047E0FB69002B0BD1BB691B881A46FB68B9
:104BE0001B68C2F308029A62BB690233BB6107E02B
:104BF000FB691A78FB681B689A62FB690133FB61E9
:104C0000FB68D3F8883003F02103212B09D1FB681E
:104C1000B3F856309BB2013B9AB2FB68A3F856201A
:104C200001E001231DE0FB68B3F856309BB2002B76
:104C3000BED13B6800937B6900224021F86800F0F8
:104C40002DFC0346002B05D0FB682022C3F88820EA
:104C5000032306E0FB682022C3F88820002300E03D
:104C6000022318462037BD4680BD00002DE9B04F15
:104C70008CB000AF7861002387F82A307B699A688E
:104C80007B691B691A437B695B691A437B69DB6932
:104C90001343FB627B691B681A68AB4B13407A694C
:104CA0001268F96A0B4313607B691B685B6823F425
:104CB00040517B69DA687B691B680A435A607B69EB
:104CC0009B69FB627B691B68A04A934204D07B69A5
:104CD0001B6AFA6A1343FB627B691B689B6823F0BB
:104CE0006E4323F430637A691268F96A0B43936068
:104CF0007B691B68DB6A23F00F017B695A6A7B6959
:104D00001B680A43DA627B691B68914A934225D18A
:104D1000904BD3F8883003F00303032B1AD801A279
:104D200052F823F0354D0008454D00083D4D000870
:104D30004D4D0008012387F82B30D6E0022387F879
:104D40002B30D2E0042387F82B30CEE0082387F8FD
:104D50002B30CAE0102387F82B30C6E07B691B6834
:104D60007D4A934238D17B4BD3F8883003F00C0353
:104D70000C2B2DD801A252F823F000BFB14D000832
:104D8000D14D0008D14D0008D14D0008C14D00089B
:104D9000D14D0008D14D0008D14D0008B94D000893
:104DA000D14D0008D14D0008D14D0008C94D000873
:104DB000002387F82B3098E0022387F82B3094E00B
:104DC000042387F82B3090E0082387F82B308CE001
:104DD000102387F82B3088E07B691B685F4A934279
:104DE00025D15C4BD3F8883003F03003302B16D03C
:104DF000302B18D8202B0AD0202B14D8002B02D00F
:104E0000102B08D00FE0002387F82B306DE0022331
:104E100087F82B3069E0042387F82B3065E00823FE
:104E200087F82B3061E0102387F82B305DE07B6939
:104E30001B684B4A934225D1464BD3F8883003F088
:104E4000C003C02B16D0C02B18D8802B0AD0802BC3
:104E500014D8002B02D0402B08D00FE0002387F895
:104E60002B3042E0022387F82B303EE0042387F802
:104E70002B303AE0082387F82B3036E0102387F8F0
:104E80002B3032E07B691B68304A93422AD1314B88
:104E9000D3F8883003F44063B3F5406F1AD0B3F50C
:104EA000406F1BD8B3F5006F0CD0B3F5006F15D869
:104EB000002B03D0B3F5806F08D00FE0002387F8F4
:104EC0002B3012E0022387F82B300EE0042387F802
:104ED0002B300AE0082387F82B3006E0102387F8F0
:104EE0002B3002E0102387F82B307B691B68174AB0
:104EF000934240F0A88097F82B30082B34D801A2B9
:104F000052F823F0294F0008694F0008314F00087C
:104F1000694F0008374F0008694F0008694F0008C3
:104F2000694F00083F4F0008FEF724F9786221E03E
:104F30000C4B7B621EE0FEF7AFF878621AE04FF48C
:104F400000437B6216E000BFF369FFCF00800040A2
:104F5000003801400010024000440040004800407A
:104F6000004C00400024F40000237B62012387F8FA
:104F70002A3000BF7B6A002B00F02A817B695B6AC4
:104F80009E4A32F813301A467B6AB3FBF2F3BB61D8
:104F90007B695A6813465B001344BA699A4205D389
:104FA0007B695B681B03BA699A4203D9012387F8BE
:104FB0002A300DE17B6A0022BB60FA607B695B6A84
:104FC0008E4A32F813309BB200223B607A60D7E9F8
:104FD0000023D7E90201FBF75FFE02460B461046AD
:104FE00019464FF000024FF000030B0243EA106332
:104FF000020279694968490800200C46054612EB0F
:10500000040843EB05097B695B6800229A469346D6
:1050100052465B4640464946FBF73EFE02460B467B
:1050200013463B623B6AB3F5407F08D33B6AB3F556
:10503000801F04D27B691B683A6ADA60C8E00123EA
:1050400087F82A30C4E07B69DB69B3F5004F67D18C
:1050500097F82B30082B28D801A252F823F000BF74
:10506000855000088D50000895500008AB5000088E
:105070009B500008AB500008AB500008AB50000834
:10508000A3500008FEF776F8786214E0FEF788F87F
:10509000786210E05A4B7B620DE0FDF7FDFF78620D
:1050A00009E04FF400437B6205E000237B620123AB
:1050B00087F82A3000BF7B6A002B00F089807B696B
:1050C0005B6A4E4A32F813301A467B6AB3FBF2F33E
:1050D0005A007B695B685B081A447B695B68B2FBBA
:1050E000F3F33B623B6A0F2B16D93B6AB3F5803F63
:1050F00012D23B6A9BB223F00F03FB833B6A5B082F
:105100009BB203F007039AB2FB8B1343FB837B69CB
:105110001B68FA8BDA605BE0012387F82A3057E0DE
:1051200097F82B30082B28D801A252F823F000BFA3
:10513000555100085D510008655100087B51000879
:105140006B5100087B5100087B5100087B5100081F
:1051500073510008FEF70EF8786214E0FEF720F8AD
:10516000786210E0264B7B620DE0FDF795FF7862D8
:1051700009E04FF400437B6205E000237B620123DA
:1051800087F82A3000BF7B6A002B21D07B695B6ADD
:105190001A4A32F813301A467B6AB3FBF2F27B6983
:1051A0005B685B081A447B695B68B2FBF3F33B62A4
:1051B0003B6A0F2B09D93B6AB3F5803F05D23B6AA6
:1051C0009AB27B691B68DA6002E0012387F82A3013
:1051D0007B690122A3F86A207B690122A3F8682079
:1051E0007B6900225A677B6900229A6797F82A3008
:1051F00018463037BD46BDE8B08F00BFB481000807
:105200000024F40080B483B000AF78607B689B6AB0
:1052100003F00803002B0AD07B681B685B6823F44B
:1052200000417B689A6B7B681B680A435A607B6805
:105230009B6A03F00103002B0AD07B681B685B6844
:1052400023F400317B68DA6A7B681B680A435A6082
:105250007B689B6A03F00203002B0AD07B681B6803
:105260005B6823F480317B681A6B7B681B680A4398
:105270005A607B689B6A03F00403002B0AD07B68AA
:105280001B685B6823F480217B685A6B7B681B6812
:105290000A435A607B689B6A03F01003002B0AD014
:1052A0007B681B689B6823F480517B68DA6B7B68A2
:1052B0001B680A439A607B689B6A03F02003002BFB
:1052C0000AD07B681B689B6823F400517B681A6CCA
:1052D0007B681B680A439A607B689B6A03F0400303
:1052E000002B1AD07B681B685B6823F480117B68F5
:1052F0005A6C7B681B680A435A607B685B6CB3F529
:10530000801F0AD17B681B685B6823F4C0017B683F
:105310009A6C7B681B680A435A607B689B6A03F03F
:105320008003002B0AD07B681B685B6823F4002194
:105330007B68DA6C7B681B680A435A6000BF0C37D5
:10534000BD465DF8047B704780B598B002AF7860C9
:105350007B680022C3F89020FCF76EFD78657B68BF
:105360001B681B6803F00803082B2FD16FF07E43E6
:1053700000937B6D00224FF40011786800F08EF8E6
:105380000346002B22D07B681B68BB63BB6B53E8D2
:10539000003F7B637B6B23F080033B657B681B686E
:1053A0001A463B6D7B643A64396C7A6C41E80023A1
:1053B000FB63FB6B002BE6D17B682022C3F88820BF
:1053C0007B68002283F88420032363E07B681B68EA
:1053D0001B6803F00403042B49D16FF07E43009354
:1053E0007B6D00224FF48001786800F057F8034687
:1053F000002B3CD07B681B687B627B6A53E8003FD4
:105400003B623B6A23F49073FB647B681B681A461B
:10541000FB6C3B63FA62F96A3A6B41E80023BB62BA
:10542000BB6A002BE6D17B681B6808333B613B6994
:1054300053E8003FFB60FB6823F00103BB647B681B
:105440001B680833BA6CFA61BB61B969FA6941E853
:1054500000237B617B69002BE5D17B682022C3F8A8
:105460008C207B68002283F88420032312E07B6871
:105470002022C3F888207B682022C3F88C207B6818
:105480000022DA667B6800221A677B68002283F8B4
:105490008420002318465837BD4680BD80B584B0AF
:1054A00000AFF860B9603B601346FB714FE0BB6929
:1054B000B3F1FF3F4BD0FCF7BFFC02463B68D31A69
:1054C000BA699A4202D3BB69002B01D103234EE093
:1054D000FB681B681B6803F00403002B37D0BB6814
:1054E000802B34D0BB68402B31D0FB681B68DB6954
:1054F00003F00803082B10D1FB681B6808221A620E
:10550000F86800F038F8FB680822C3F89020FB68C0
:10551000002283F88420012329E0FB681B68DB69F3
:1055200003F40063B3F5006F11D1FB681B684FF4FF
:1055300000621A62F86800F01EF8FB682022C3F8C7
:105540009020FB68002283F8842003230FE0FB688F
:105550001B68DA69BB681340BA689A420CBF012322
:105560000023DBB21A46FB799A42A0D000231846EA
:105570001037BD4680BD80B495B000AF78607B68C1
:105580001B687B637B6B53E8003F3B633B6B23F4FF
:105590009073FB647B681B681A46FB6C3B64FA6380
:1055A000F96B3A6C41E80023BB63BB6B002BE6D17F
:1055B0007B681B6808333B623B6A53E8003FFB6132
:1055C000FB6923F0805323F00103BB647B681B68F5
:1055D0000833BA6CFA62BB62B96AFA6A41E800231E
:1055E0007B627B6A002BE3D17B68DB6E012B18D1D9
:1055F0007B681B68FB60FB6853E8003FBB60BB68CF
:1056000023F010037B647B681B681A467B6CBB61CC
:105610007A617969BA6941E800233B613B69002BF3
:10562000E6D17B682022C3F88C207B680022DA66F2
:105630007B6800225A6700BF5437BD465DF8047B83
:10564000704780B485B000AF78607B6893F8843091
:10565000012B01D1022327E07B68012283F88420FB
:105660007B682422C3F888207B681B681B68FB606A
:105670007B681B681A687B681B6822F001021A604D
:10568000FB6823F00053FB607B6800225A667B684E
:105690001B68FA681A607B682022C3F888207B6840
:1056A000002283F88420002318461437BD465DF895
:1056B000047B704780B584B000AF786039607B6848
:1056C00093F88430012B01D102232DE07B68012265
:1056D00083F884207B682422C3F888207B681B68B9
:1056E0001B68FB607B681B681A687B681B6822F07C
:1056F00001021A607B681B689B6823F060417B682D
:105700001B683A680A439A60786800F04FF87B6833
:105710001B68FA681A607B682022C3F888207B68BF
:10572000002283F88420002318461037BD4680BD30
:1057300080B584B000AF786039607B6893F88430BE
:10574000012B01D102232DE07B68012283F8842004
:105750007B682422C3F888207B681B681B68FB6079
:105760007B681B681A687B681B6822F001021A605C
:105770007B681B689B6823F060617B681B683A68E4
:105780000A439A60786800F011F87B681B68FA6831
:105790001A607B682022C3F888207B68002283F887
:1057A0008420002318461037BD4680BD80B485B0E4
:1057B00000AF78607B685B6E002B08D17B680122AC
:1057C000A3F86A207B680122A3F8682031E008234F
:1057D000FB730823BB737B681B689B685B0EDBB2A3
:1057E00003F007037B737B681B689B685B0FDBB26E
:1057F00003F007033B73BB7B3A7B11498A5C02FBD6
:1058000003F33A7B0F498A5C93FBF2F39AB27B680D
:10581000A3F86A20FB7B7A7B09498A5C02FB03F3CD
:105820007A7B08498A5C93FBF2F39AB27B68A3F80F
:10583000682000BF1437BD465DF8047B704700BF89
:10584000CC810008D48100082DE9FF4757EC106B8C
:10585000002F0C4619463B46BBBF07F100431F46CD
:1058600000232D230B700D9BDDF830A0914623F013
:105870002008BCBF32461646B8F1460F05D0B8F135
:10588000450F00D10134022100E0032103AB019355
:1058900002AB009347EC106B5346224600F04CFEDF
:1058A000B8F1470F054619D119F0010F0ED000EBE2
:1058B00004090022002330463946FBF72DF908B1D0
:1058C000CDF80C903022039B4B451ED3039B0E9AC0
:1058D0005B1B2846136004B0BDE8F087B8F1460FA3
:1058E00000EB0409E5D10378302B0AD10022002314
:1058F00030463946FBF710F918B9C4F10104CAF86B
:105900000040DAF800309944D3E7591C03911A702B
:10591000D9E7F7B50029BABF49422D232B2309291E
:105920000270437029DD0DF107031D460A271A4650
:10593000B1FBF7F607FB1614303402F8014C0C46A5
:10594000632C03F1FF333146F1DC3031941E03F850
:10595000011C411C2346AB420AD30DF109039B1ADB
:10596000AC4288BF002302330344181A03B0F0BDD1
:1059700013F8016B01F8016FEDE7302330318370CC
:10598000C170031DF1E700002DE9F04F8DB00C460A
:10599000DDF8588016461F46054600F0CBFC03682C
:1059A00004931846FAF78CFC00230A93D8F80030C9
:1059B0000590073323F0070303F1080294F818A0B9
:1059C000D4F800B0C8F80020D3E9008929F00043DA
:1059D0000793CDF81880C4E91289DDE906019C4BD4
:1059E0004FF0FF32FBF7CAF870BBDDE90601984BB8
:1059F0004FF0FF32FBF7A4F830BB002200234046F3
:105A00004946FBF793F810B12D2384F84330914AAF
:105A1000914BBAF1470F8CBF904698460323236100
:105A20002BF0040323604FF00009009733460BAAC4
:105A30002146284600F0D2F9013040F08D804FF029
:105A4000FF300DB0BDE8F08F42464B464046494618
:105A5000FBF794F840B14B46002BBCBF2D2384F8D4
:105A600043307E4A7E4BD4E763680AF0DF02069239
:105A70005A1C3BD1062363604BF4806200232260F2
:105A800003930AABCDE901A309AB0093616849EC2C
:105A9000108B0DF123032846FFF7D6FE069B0999CC
:105AA000472B804629D1C81C02DB6368994241DD3F
:105AB000AAF1020A5FFA8AFA0139524604F150004B
:105AC0000991FFF726FF0A9A1318012A81462361DC
:105AD00002DC2268D20701D5013323619DF823300F
